:100000000C944A050C9467050C9467050C948D2C90
:100010000C9467050C9467050C9467050C946705B0
:100020000C9467050C9467050C944E170C940A17F2
:100030000C94DB240C9467050C9467050C946705FD
:100040000C9467050C9467050C9467050C94670580
:100050000C9467050C9426180C9467050C9467059E
:100060000C9467050C9467050C9467050C94670560
:100070000C9467050C9467050C9467050C94670550
:100080000C9467050C9467050C9467050C94670540
:100090000C9467050C9467050C9467050C94670530
:1000A0000C9467050C9467050C946705050109021B
:1000B000A10185020901A1000509190129081500FE
:1000C0002501950875018102050109300931158165
:1000D000257F95027508810609381581257F9501D0
:1000E00075088106050C0A38021581257F95017572
:1000F000088106C0C00660FF0961A1010962150000
:1001000026FF009520750881020963150026FF006F
:10011000952075089102C005010906A1010507197E
:10012000E029E71500250195087501810295017503
:100130000881010507190029FF150026FF00950613
:100140007508810005081901290515002501950587
:1001500075019102950175039101C0000000000036
:10016000000000000000000000000000000000008F
:100170000000000000000000000000000000007E01
:100180000F00D4FFFFFFC700000078000000000050
:100190000000002A2B2800000000000000000000E2
:1001A00000000000000029000000002C1E34202167
:1001B0002224342627252E362D3738271E1F2021AE
:1001C00022232425263333362E37381F040506070D
:1001D00008090A0B0C0D0E0F101112131415161727
:1001E00018191A1B1C1D2F3130232D350405060745
:1001F00008090A0B0C0D0E0F101112131415161707
:1002000018191A1B1C1D2F3130354C00DA0281FFE2
:10021000D9F1DB20A4A62EAF00A0C0D30000A1C856
:10022000D30000AED580A81F408D14200000AF0081
:10023000AE6162636465666768696A6B6C6D6E6FF8
:10024000707172737475767778797A3132333435A8
:100250003637383930524542545F2D3D5B5D5C2363
:100260003B27602C2E2F20202700204B00202043EE
:10027000004B6579203A2020520020204400303085
:100280002020530020202020204350490042616C50
:100290006C3A004C617965723A0080818283848572
:1002A000868788898A8B8C8D8E8F9091929394A06B
:1002B000A1A2A3A4A5A6A7A8A9AAABACADAEAFB0B6
:1002C000B1B2B3B4C0C1C2C3C4C5C6C7C8C9CACB22
:1002D000CCCDCECFD0D1D2D3D4002B0014001A0075
:1002E000080015001700E00004001600070009418F
:1002F0000A00E1001D001B000600190005000000B7
:10030000E200E3002C422C0031412D0013001200CA
:100310000C0018001C00344133000F000E000D00CB
:100320000B003000380037003600100011000000CC
:100330002F430100010028422A0001003A003B003F
:100340003C003D003E000100810080007F00440031
:10035000450001003F004000410042004300000012
:100360000100010001000100010001000100010085
:10037000010001000100010069004F00520051001E
:100380005000E5006A00D500D200D100D400000082
:100390000100010001000100010035001E021F02E2
:1003A00020022102220235021E001F00200021002F
:1003B0002200010001000100010001000100000015
:1003C000010001000100010001002E0027022602A9
:1003D00025022402230231002700260025002400E4
:1003E000230030002E0230022F0230002F000000C8
:1003F00001000100010001004C0020780100010013
:100400000100010001002178237825782778010078
:10041000087E22782478267828780100097E00005A
:10042000017C007E01000100010030782F782E78D9
:100430002D782C782B78007E010034783378327850
:100440003178017E0100047E027E037E057E00007D
:10045000017C010001000100010001000100010018
:100460000100010001000100010001000100010084
:100470000100010001000100010001000100000075
:100480000100010001000100010001000100010064
:100490000100010001000100010001000100010054
:1004A00001000100010001000100D1000100000075
:1004B0000100010001000100010009025B000301CD
:1004C00000A0FA0904000001030101000921110143
:1004D000000122440007058103080001090401000E
:1004E000020300000009211101000122220007057A
:1004F0008203200001070503032000010904020014
:100500000103000000092111010001224900070533
:100510008403200001120100020000000857590066
:100520000400010102000114034B00650079006220
:100530000061006C006C00340034000000100359AE
:10054000006F0077006B0065006500730000000419
:100550000309040000000000003E5B4F5B3E003ECC
:100560006B4F6B3E001C3E7C3E1C00183C7E3C18D2
:10057000001C577D571C001C5E7F5E1C0000183C51
:10058000180000FFE7C3E7FF00001824180000FF71
:10059000E7DBE7FF0030483A060E002629792926D6
:1005A00000407F05050700407F05253F005A3CE7D6
:1005B0003C5A007F3E1C1C0800081C1C3E7F001497
:1005C000227F2214005F5F005F5F0006097F017FCA
:1005D00000006689956A0060606060600094A2FF18
:1005E000A2940008047E04080010207E2010000859
:1005F000082A1C0800081C2A0808001E10101010E9
:10060000000C1E0C1E0C0030383E383000060E3E2A
:100610000E060000000000000000005F0000000067
:100620000700070000147F147F1400242A7F2A1279
:100630000023130864620036495620500000080762
:10064000030000001C224100000041221C00002A7F
:100650001C7F1C2A0008083E08080000807030003B
:10066000000808080808000000606000002010086A
:100670000402003E5149453E0000427F40000072A6
:1006800049494946002141494D33001814127F1051
:10069000002745454539003C4A494931004121116F
:1006A000090700364949493600464949291E0000D4
:1006B0000014000000004034000000000814224133
:1006C00000141414141400004122140800020159EB
:1006D0000906003E415D594E007C1211127C007FDC
:1006E00049494936003E41414122007F4141413E56
:1006F000007F49494941007F09090901003E414104
:100700005173007F0808087F0000417F41000020EE
:1007100040413F01007F08142241007F404040409B
:10072000007F021C027F007F0408107F003E4141D1
:10073000413E007F09090906003E4151215E007FCC
:10074000091929460026494949320003017F01035E
:10075000003F4040403F001F2040201F003F4038E6
:10076000403F00631408146300030478040300612D
:1007700059494D4300007F414141000204081020C7
:1007800000004141417F000402010204004040405A
:100790004040000003070800002054547840007FC8
:1007A0002844443800384444442800384444287FCE
:1007B0000038545454180000087E090200182424FC
:1007C0001C78007F080404780000447D400000206D
:1007D00040403D00007F102844000000417F400061
:1007E000007C04780478007C0804047800384444D1
:1007F0004438007C1824241800182424187C007C19
:10080000080404080048545454240004043F4424B9
:10081000003C4040207C001C2040201C003C40301C
:10082000403C004428102844004C9090907C0044A8
:1008300064544C440000083641000000007700007A
:10084000000041360800000201020402003C262399
:10085000263C000000000000000000000000000036
:100860000000000000000000000000C0F0F88C86CE
:10087000C6E7FFFFFFFFFFFFFEFCFCF8E080000083
:1008800000F0F0F00000C0E0F07070000000000028
:100890000000000000000000000000000000000058
:1008A00000F8F8F800000000000000000000000060
:1008B00000000000000000F8F8F80000F8F8F80068
:1008C0000000000000000000000000000000000028
:1008D00000E0F0F0F0E0ECEEF7F37020007C7C7CC0
:1008E0007E007E7E7E7F7F7F000080C0E07E5B4F4B
:1008F0005BFEC00000C000DCD7DEDEDED7DC00C05F
:1009000000000000000000000000000000000000E7
:1009100000000000000000000000000000000000D7
:100920000000000080E07078686C64C7C7C7C7C764
:10093000C7E73F1F0F3FFFFFFFFFFFFF3F0F000015
:1009400000FFFFFF1E3FFFF3E1800000F8FCFE36D2
:1009500036363EBCB8000E3EFEF080F0FE3E0E0085
:1009600000FFFFFF060606FEFEFC7000E6F6F63608
:1009700036FEFEFC000000FFFFFF0000FFFFFF004F
:100980000000000000000000000000000000000067
:10099000000F1F3F7F7F7F7F7F3F1E0C001F1F1FA9
:1009A0003F003F3F3F7F7F7F00307B7F78302020BC
:1009B00030787F3B0003000F7F0F0F0F7F0F000386
:1009C0000000000000000000000000000000000027
:1009D0000000000000000000000000000000000017
:1009E0000000003C7F6360E0C0C0C0C0C0C0C0C0A9
:1009F000FFFFC06030180F03030301000000000078
:100A000000030303000000030303030001030303C7
:100A10000303030301007070393F1F07010000004A
:100A200000010303030303030301000001030303A5
:100A3000030303010000000303030000030303009A
:100A400000000000000000000000000000000000A6
:100A50000000000000000000000000000000000096
:100A60000000000000000000000000000000000086
:100A70000000000000000000000000000000000076
:100A80000000000000000000000000000000000066
:100A90000000000011241FBECFEFDAE0DEBFCDBFA3
:100AA00011E0A0E0B1E0E8E7FDE502C005900D929D
:100AB000AA39B107D9F725E0AAE9B1E001C01D9232
:100AC000A832B207E1F70E9402250C94932E0C94F1
:100AD0000000982FE0911A034091E10257E0E413DF
:100AE00002C080E008952E2F30E05E9FF0011124B7
:100AF000EE51FD4F8181681306C08081981303C0B9
:100B000085818111EFCFF9013196E770E8CFE8EDEB
:100B1000F0E080818E7F80831092E2001092DA00F4
:100B20001092E100A0EEB0E08C9181608C93808106
:100B30008F77808319BCA7EDB0E08C918E7F8C936A
:100B400080818F7E80831092C90208952091E400F5
:100B50003091E50095E6A9012091EC00822F81708B
:100B600020FF06C08091E80080FF06C080E0089565
:100B70002091E80022FD1AC08091D702882389F0D5
:100B8000853089F08091EB0085FD0FC02091E40055
:100B90003091E50042175307F9F29150E1F684E0F5
:100BA000089582E0089583E0089581E0089580919A
:100BB000D90287FF13C08091E80082FF06C08091B0
:100BC000E8008B778093E80004C08091D702811100
:100BD000F2CF08958091D7028823D9F38091E8005D
:100BE00080FFF8CF8091E8008E77ECCF982F90931C
:100BF000E900242F762F50E0891731F07091EC0036
:100C00002091ED005091F00021FD07C09F5F9730CB
:100C100071F78093E90081E008953091EB003E7F09
:100C20003093EB003091ED003D7F3093ED0030913B
:100C3000EB0031603093EB007093EC002093ED00FB
:100C40005093F0002091EE0027FDE0CF80E0089562
:100C5000B0E0A0E0EEE2F6E00C94C82DC8EDD0E0E4
:100C600088818F7E8883E7EDF0E0808181608083DA
:100C700084E082BF81E08093C90288818E7F88836F
:100C800002EE10E0F80110821092DA0081EEC82E18
:100C9000D12CF601108288818F77888388818068C3
:100CA000888388818F7D888319BC1092D702109227
:100CB000D8021092D6021092D50290EEE92EF12CB5
:100CC000F70180818B7F808388818160888342E007
:100CD00060E080E00E94F605F60180818E7F8083CF
:100CE000F801808181608083808188608083F70142
:100CF00080818E7F8083888180618883CDB7DEB7D5
:100D0000E8E00C94E42DFC01CB012091DF0230914E
:100D1000E0022617370790F0009729F42091E800A9
:100D20002E772093E80040E0009751F4411108C06D
:100D30008091E80082FF31C080E00895C901F3CFBF
:100D40002091D7022223A9F12530A9F12091E800B2
:100D500023FD2DC02091E80022FDEACF2091E8007C
:100D600020FFE2CF3091F3002091F200009719F0BC
:100D70002830310558F041E02830310509F040E0D5
:100D80002091E8002E772093E800CECF4191409348
:100D9000F10001972F5F3F4FE9CF8091D702882361
:100DA00041F0853041F08091E80083FFC1CF81E0C0
:100DB000089582E0089583E0089508958091CC021B
:100DC000089587E797E7909301088093000888E1EA
:100DD0009AE00FB6F894A895809360000FBE9093A8
:100DE0006000FFCFA4E0B0E0E8EFF6E00C94CE2D79
:100DF0008FB7F8942091C5023091C6024091C70286
:100E00005091C80229833A834B835C838FBF6981E9
:100E10007A818B819C812496E2E00C94EA2D9C01DE
:100E2000FC0132968FEF90E04191461751F08F3FD1
:100E300019F4411101C0892F9F5F9630A9F78F3FA8
:100E400009F40895280F311D87FD3A95F901628351
:100E50000895FC01680F791F8FEF91E3219182279C
:100E600028E030E087FF09C0880F89272150310929
:100E7000C9F7E617F70791F70895880FF7CF909114
:100E80006401882341F09F5F909364011092610197
:100E90001092600108959150F7CFE9E5F1E0828565
:100EA00091E08927828710861782089580916301D7
:100EB00081110CC09091740296959695969581E05B
:100EC00020915A01921380E08170089581E0FCCF57
:100ED00080916201811108C080916401811104C078
:100EE0000E9456078170089581E090E0FBCF8091C9
:100EF0007502F90180830895CF93DF93E5E7F2E06F
:100F000083819481A581B681E90188839983AA832D
:100F1000BB831482138216821582DF91CF910895CC
:100F200080E0089563E070E089EE91E00E94290777
:100F30009091E801891318C0E091E901EA30A4F426
:100F400088E0E802F0011124EF5FFE4F0680F78190
:100F5000E02D309749F02CE032E04091EB016CEE4F
:100F600071E08091EA0109950895E1E0F1E0AFEDCB
:100F7000B1E01B968C911B9780A31C968C9183AB40
:100F80000895F894E82FE295EF70F0E041A18F709A
:100F900021E030E0B90102C0660F771F8A95E2F7C1
:100FA000CB01962F9095942391A392A1892B82A394
:100FB000789408959091480292FF10C041E0282F44
:100FC0002471243009F040E031E0282F28712830C6
:100FD00009F030E0431711F02CE0822793FF10C096
:100FE00041E0282F2471243109F040E031E0282F1E
:100FF0002871283109F030E0431711F02CE08227E6
:101000003091490230FF10C051E0282F217121306A
:1010100009F050E041E0282F2871283009F040E025
:10102000541711F029E0822731FF10C041E0282F2A
:101030002171213109F040E031E0282F2871283159
:1010400009F030E0431711F029E0822794FD877EF4
:101050000895803E9105C1F1C8F48133910509F4EA
:101060007DC048F48932910509F46DC08A3291053A
:1010700009F47BC0089589339105D1F08238910538
:10108000B9F08533910509F459C00895843E91055E
:10109000C1F138F4823E910521F1833E910531F191
:1010A0000895863E9105C1F1873E9105E1F10895CD
:1010B00020914802237009F065C02091490223FF66
:1010C00014C089E290E008952091480220FD43C0B9
:1010D0003091490230FF09C024FF4EC090E080E00B
:1010E00008952091480222FDF7CF089520914802EB
:1010F00022FD45C03091490230FD44C024FFF5CFA8
:10110000EDCF2091490221FFF0CF8091480284FD6C
:10111000E5CF87EE90E008952091480223FFE5CFC8
:1011200024FDDCCFF6CF2091480223FD2EC0309164
:10113000490231FFE3CF84EE90E008952091480208
:1011400025FFD3CFBECF2091480225FD21C020919D
:10115000490223FFCACF89E390E0C7CF209148021C
:1011600026FFC3CF8AE290E008952091480226FF2F
:10117000BCCF81E390E0089583EE90E0089582EE85
:1011800090E0089580EE90E0089586EE90E0089556
:1011900085E390E008951F93CF93DF930E94290881
:1011A000EC018115924508F04FC0C11580E5D807C4
:1011B00008F0C8C0C83ED105F0F4C03ED10568F4BF
:1011C000C53AD10578F4C430D10538F491E080E017
:1011D000219709F090E0C92FD82FCE01DF91CF9150
:1011E0001F910895CE018D5C9109D0654397A8F3B6
:1011F000D0E0C0E0F2CFC11590E4D907D8F4C11512
:1012000020E2D20708F0B8C0CE019A9581159F411F
:1012100078F78D2F0E94DA07182FCE0199270E94A8
:101220002908C12FD0E0DC2FCC27CC27DF71C82BB9
:10123000D92BD3CFCE0199270E942908CC27DF7064
:10124000C82BD92BD06AC9CFC03882E5D807B8F5EA
:10125000C03692E5D90708F056C0C03422E5D2075F
:10126000C8F4C03282E5D80708F046C02C2F269576
:10127000269590E2299F900111248C2F8370C1E064
:10128000D0E002C0CC0FDD1F8A95E2F7C22BD32B32
:10129000DD68A3CF2C2F26952695277080E2289F06
:1012A000900111248C2F8370C1E0D0E002C0CC0FDC
:1012B000DD1F8A95E2F7C22BD32BDC688ECFC03CB2
:1012C00092E5D90760F48C2F8F71C03AD24580F532
:1012D000C82FD0E0DC2FCC27C46FD06A7ECFCE01E0
:1012E000805C9245809708F083CFDC2FCC27CC27F9
:1012F000DF71C06FD06A71CFCF71D0E0DC2FCC2707
:10130000C16FD06A6ACF2C2F26952695277080E270
:10131000289F900111248C2F8370C1E0D0E002C07F
:10132000CC0FDD1F8A95E2F7C22BD32BDA6855CF9D
:101330000E94DA07C82FD0E0DC2FCC27CC27DF7142
:10134000D0624BCF8C2F8F710E94DA0755E0D69573
:10135000C7955A95E1F7CF70D0E0DC2FCC27282F26
:1013600030E084FF05C044E0220F331F4A95E1F7C7
:10137000C22BD32BD06931CF8D2F8F710E94DA070A
:10138000182FCE0199270E942908C12FD0E0DC2F09
:10139000CC27CC27DF71C82BD92BD2CF982F909593
:1013A0008091CA0289238093CA02089580911A030A
:1013B0009091E102981301C008958F5F8770FACF72
:1013C000292F983078F5863068F590E036E0239F35
:1013D000800D911D1124682F677023E096958795E5
:1013E0002A95E1F7FC01EE0FFF1FE80FF91FE15509
:1013F000FE4F50E040E080E0219130E0062E02C038
:10140000369527950A94E2F721703327042E01C000
:10141000220F0A94EAF7822B4F5F5F4F433051054A
:1014200059F7089580E00895292F983090F5863077
:1014300080F590E036E0239F800D911D1124282F28
:10144000277041E001C0440F2A95EAF723E0969502
:1014500087952A95E1F7FC01EE0FFF1FE80FF91FB2
:10146000E155FE4F90E080E070E05191DF0111976F
:101470009B01082E02C0369527950A94E2F7217049
:1014800021952527242325272C9301968330910528
:1014900061F70895809347020895982F82958F7081
:1014A00011F0982F84E0292F2695269511F08E5F54
:1014B000922F969509F08F5F0895CF93C82F809152
:1014C00082028C1751F00E94F2066093830270939F
:1014D00084028093850290938602C0938202CF910A
:1014E0000895CF93DF93DC01FB01509187025111E6
:1014F00001C057E08D919C91119751509C01052E90
:1015000002C0359527950A94E2F7B901052E02C06D
:10151000660F771F0A94E2F7861B970B11969C9330
:101520008E9312966D917C911397CB01052E02C07C
:10153000959587950A94E2F7EC0102C0CC0FDD1F68
:101540005A95E2F76C1B7D0B13967C936E93129762
:1015500081385FEF9507B4F080389105ACF485834E
:1015600021389FEF390794F0203831058CF4922F01
:1015700091959483442319F0819585832483DF9189
:10158000CF91089581E8EBCF8FE7E9CF21E8EFCF46
:101590002FE7EDCFFC01DB012281338121388FEF72
:1015A000380704F120383105FCF412962C93129779
:1015B0008081918181383FEF9307C4F08038910595
:1015C000BCF413968C931397442339F0219512960B
:1015D0002C931297819513968C931182108213820B
:1015E0001282089521E8E1CF2FE7DFCF81E8E9CF2C
:1015F0008FE7E7CF8F708A3010F4805D0895895AA5
:10160000089520E287FF02C081952DE23AE0632F22
:101610000E94012E905D9093A70181110BC0209331
:10162000A60120E22093A50120E22093A40184EAF0
:1016300091E00895632F0E94012E905D9093A60182
:10164000882381F3805D8093A501EFCFAC01860FE5
:10165000971F57FD07C077FD04C097FF02C08FEFAB
:101660009FE7089577FFFDCF97FDFBCF80E090E8DF
:101670000895E2E6F1E083E0DF011D928A95E9F743
:10168000EEE5F1E084E0DF011D928A95E9F7089527
:10169000CF9390916F0280916802981323C080913C
:1016A0007002882321F09091690289131BC08091F8
:1016B0007102882321F090916A02891313C08091EE
:1016C0007302882321F090916C0289130BC09091D2
:1016D0007202992329F081E020916B02291303C043
:1016E00080E001C081E0C82FC17080FF0FC0E09191
:1016F000C202F091C302309749F082E080936E02FB
:101700000480F581E02D8EE692E0099590916F02BC
:1017100086E0EEE6F2E0DF01282F1D922A95E9F738
:1017200090936F02A7E6B2E001900D928A95E1F7DF
:1017300081E0C11103C0911101C080E08170CF919F
:1017400008952FE2280F283078F481E090E001C05E
:10175000880F2A95EAF720916F02662331F0822BD9
:1017600080936F020E94480B089580958223F8CFE2
:10177000CF93DF93D82F80915A0121E030E002C04F
:10178000220F331F8A95E2F720953095CD2FC22383
:101790008C2F0E944D0A90915901833091F4992326
:1017A00049F00E945607811101C0DC2F10925901A7
:1017B0000E94390B81E00E945D0A8D2FDF91CF914D
:1017C0000895911105C081E0809359010E94390B61
:1017D00080E0F1CF0E94B80B80939702089590911A
:1017E000970221E030E0F90101C0EE0F8A95EAF797
:1017F000D90102C0AA0FBB1F6A95E2F7EA2B01C00C
:10180000220F4A95EAF7892F8E23E81305C0292B6A
:10181000822F0E94EA0B089520952923F9CF21E019
:1018200030E001C0220F8A95EAF720958091970257
:1018300082230E94EA0B0895909174028095892377
:1018400080937402282F277069F4891759F09091BA
:10185000490292FF07C08695869586950E940F0CD7
:1018600010927402089521E030E001C0220F8A95A1
:10187000EAF780919702822B0E94EA0B0895CF939A
:10188000DF93682F81E06A3019F06D3031F480E029
:101890000E94CD0CDF91CF91089580912405909105
:1018A000250526E0FC01AEE1B5E001900D922A95F8
:1018B000E1F7603E08F458C026E0FC0111922A9539
:1018C000E9F7C0912405D091250546E050E0BE011E
:1018D0008EE195E00E94252E9E012E513340892BEA
:1018E00041F1C90145E0969587954A95E1F741E0B8
:1018F00050E0BA0102C0660F771F8A95E2F7CB016C
:1019000060911C0370911D03862B972BB9016B5FAF
:101910007F4FE5E076956795EA95E1F702C0440FC1
:10192000551F6A95E2F7842B952B90931D038093A6
:101930001C032A5F3F4F40911B03642F70E0C901D5
:101940000E94AA2D481B463010F4240F311D21158A
:1019500072E0370710F030E020E0225E3C4F309319
:1019600025052093240596CFF6E06F9FB001112442
:101970006D5A7A4F46E050E00E941C2EA2CFCF93C2
:10198000DF93EC01FE018491811103C0DF91CF91BF
:1019900008950E943F0C2196F5CFCF93382FE09108
:1019A0002405F0912505EE51F34020911B03622F91
:1019B00070E0CF010E94AA2D281B822F332361F0F3
:1019C00066E00E94F52DC82FC15010F4CF91089504
:1019D00080E20E943F0CF8CF9F01280F311D211596
:1019E000324018F080E0F0E0E0E08E0F9F2F911D74
:1019F000825E9C4F9093250580932405E7CF8091CC
:101A0000CA029091D101892B80939C019091D001C1
:101A1000992391F0892B80939C0120E08EE991E03D
:101A2000FC013081019631112F5F31E0843A930738
:101A3000B9F721111092D00148E050E068EC71E054
:101A40008CE991E00E94252E892BA9F088E0ECE931
:101A5000F1E0A8ECB1E001900D928A95E1F7E091F8
:101A6000C202F091C302309731F00280F381E02D81
:101A70008CE991E009950895EEE9F1E086E0DF0157
:101A80001D928A95E9F71092D1010E94FF0C0895EA
:101A9000AAE2B0E0EEE4FDE00C94CD2D89ED92E0F9
:101AA000FC0101962091F100208322E0813E920703
:101AB000B9F78091DA02893009F458C0C8F482304D
:101AC00009F4B5C0833009F484C0813081F180917C
:101AD000E80083FF87C28091D9029091DA029A30A0
:101AE00008F080C2E92FF0E0EB56F14D0C940F2E78
:101AF0008A3009F48BC08B3051F78091D902813242
:101B000031F78091DD029091DE02892B01F78091FF
:101B1000E800877F8093E8000E94D7058091DB0270
:101B200080936C011092CA020E943C0DD0CF80912C
:101B3000D902813A61F68091E800877F8093E800BE
:101B40008091DD029091DE02892B61F468E08DECDA
:101B500092E070E00E9483068091E8008B7780938A
:101B6000E800B5CF60E090E080E0F3CF8091D9024B
:101B7000813209F0ACCF8091DD029091DE028D7F41
:101B8000892B09F0A4CF8091E800877F8093E8003B
:101B90008091E80082FF18C09091F3008091F200DC
:101BA000029731F48091F100813011F0863021F4F8
:101BB0008091F1008093CC028091E8008B77809334
:101BC000E8000E94D70583CF8091D7028111E0CF32
:101BD0007ECF8091D902813A09F079CF8091DD02E0
:101BE0009091DE02892B09F072CF8091E800877F07
:101BF0008093E8008091E80080FFFCCF80916C0129
:101C00008093F1008091E8008E77D9CF8091D9023E
:101C1000813209F05CCF8091E800877F8093E800F3
:101C20000E94D7058091DC028093CB0250CF809137
:101C3000D902813A09F04BCF8091E800877F8093E9
:101C4000E8008091E80080FFFCCF8091CB02D8CFE4
:101C5000803899F0823809F0C5C18091DD028F701B
:101C6000873008F0BFC18093E9008091EB0085FBCD
:101C7000882780F91092E90006C08091D5029091E2
:101C8000D602911182609091E800977F9093E800CE
:101C90008093F1001092F1008091E8008E779EC150
:101CA000882309F48CC1823009F09CC18091DB0249
:101CB00081118FC18091DD028F702FEF280F2630A8
:101CC00008F090C18093E9002091EB0020FF81C1D2
:101CD000933031F48091EB0080628093EB0079C106
:101CE0009091EB0090619093EB0021E030E001C017
:101CF000220F8A95EAF72093EA001092EA00809179
:101D0000EB008860EACF81116DC11091DB021F7773
:101D10008091E3008078812B8093E3008091E8003C
:101D2000877F8093E8000E94D7058091E80080FFBC
:101D3000FCCF8091E30080688093E30082E0111182
:101D400083E08093D7024EC18058823008F04AC1A8
:101D50004091DB025091DC024C3D83E05807A1F535
:101D600083E08A838AE289834FB7F894DE01139671
:101D700020E03EE051E2E32FF0E050935700E49181
:101D800020FF03C0E295EF703F5FEF708E2F90E071
:101D9000EA30C0F0C7968D939D932F5F243159F799
:101DA0004FBF8091E800877F8093E8006AE270E08F
:101DB000CE0101960E9483068091E8008B77809384
:101DC000E80010C1C096E7CF8091DD029091DE025D
:101DD000252F33272330310509F44AC078F5213007
:101DE000310509F479C08BE590E0EAEBF4E02230AC
:101DF000310509F0F7C02091E800277F2093E80023
:101E00002091DF023091E0028217930708F49C01D1
:101E100040E02115310509F064C0411162C0809194
:101E2000E80082FDC9CF8091D702882329F285304E
:101E300019F28091E80083FFF2CFBECF2132310545
:101E400009F43BC02232310509F0CCC08330910542
:101E500008F0C8C0FC01EE0FFF1FE357FE4F0190D2
:101E6000F081E02D86579E4FDC018C9190E011C0EF
:101E7000CA019927413089F082309105B1F0892B50
:101E800009F0B0C0EFE4F5E0E4918E2F90E0EFE4CC
:101E9000F5E0009709F4A6C0AECFEDE3F5E0E491DC
:101EA0008E2F90E0EDE3F5E0F4CFE7E2F5E0E4918A
:101EB0008E2F90E0E7E2F5E0ECCF8330910508F05B
:101EC00091C0880F991FFC01ED56FE4F0190F081E3
:101ED000E02D89E090E08FCF82E190E0E5E1F5E050
:101EE0008ACF8091D702882309F466CF853009F420
:101EF00063CF8091E80083FD5FCF8091E80082FD91
:101F00008ECF8091E80080FF84CF9091F300809184
:101F1000F2002115310519F08830910550F041E0AB
:101F2000089709F040E08091E8008E778093E80000
:101F300070CF44914093F1003196215031090196C0
:101F4000E8CF803809F04EC08091E800877F809309
:101F5000E8008091D8028093F1009ECE811142C0AA
:101F60001091DB021230F0F58091E800877F8093BA
:101F7000E8001093D8020E94D705112311F084E0E5
:101F800005C08091E30087FDFACF81E08093D702FE
:101F900042E061EC81E00E94F60542E261EC84E0FF
:101FA0000E94F60542E261EC82E00E94F60542E200
:101FB00060EC83E00E94F6058091D70213C0809107
:101FC000DB02813079F481E0933009F080E0809386
:101FD000D6021092E9008091E800877F8093E800A4
:101FE0000E94D7058091E80083FF0AC08091E80035
:101FF000877F8093E8008091EB0080628093EB0004
:10200000AA96E3E00C94E92D882321F00E94CE09E2
:102010000E94FF0C0895882339F09091CA02892B01
:102020008093CA020E94FF0C0895882349F19CEF17
:10203000980F913A80F4EEE9F1E024EA31E09191D1
:10204000891303C0DF0111971C922E173F07B9F7C0
:102050000E94FF0C089590E2980F983050F487701A
:1020600091E001C0990F8A95EAF7892F0E94CE0965
:10207000EFCF93E3980F933118F460E00E94A10B27
:102080000895CF93C82F8823A9F08CEF8C0F813A45
:1020900000F5EEE9F1E0DF018D91C81769F081E00C
:1020A000A43AB807C9F76C2F8CE991E00E940F079A
:1020B0000E94FF0CCF9108958191C81303C0DF01E6
:1020C00011971C9281E0E43AF807B1F70E94FF0CE7
:1020D000EACF80E28C0F883068F4C77021E030E0EE
:1020E00001C0220FCA95EAF78091CA02822B809321
:1020F000CA02DECF83E38C0F8331E0F661E08C2FE0
:102100000E94A10BD7CF0F931F93CF93DF93EC01C6
:10211000FC0101900020E9F78F0101501109C0175F
:10212000D10728F0DF91CF911F910F9108958991E8
:102130000E943F0CF4CF0F931F93CF93DF938B013B
:10214000EA019091D702943061F58093E9008FEF16
:102150009091E800815095FD06C095ED9A95F1F7B4
:1021600000008111F5CF8091E80085FF1AC00E9420
:10217000A605811111C08091E80085FD06C08091FF
:10218000E8008E778093E800F2CFF80181918F010B
:102190008093F100219779F78091E8008E77809302
:1021A000E800DF91CF911F910F910895BC0146E0A7
:1021B00050E084E00E949B100895CF93DF93D82FC6
:1021C000C92F48E050E0682F792F81E00E949B10D2
:1021D00088E0ED2FFC2FADECB2E001900D928A95D6
:1021E000E1F7DF91CF910895B0E0A0E0EAEFF0E1F0
:1021F0000C94C62DF82EE92ED62EC72E8A0180917A
:102200003802AA24A394B12C8A3018F48AE0A82EAC
:10221000B12CC1E0D0E06D2D7C2D8F2D9E2DF801CD
:102220000995811104C02196AC16BD062CF4CDB7DA
:10223000DEB7EAE00C94E22DCC9F9001CD9F300DEB
:10224000300D112490E080E045E34A95F1F700005D
:10225000019682179307C1F7DECF8091DE018111CD
:1022600019C082E390E02091E30027FD10C0EFE366
:10227000FCE93197F1F700C000000197A1F782E077
:102280008093DE010E9487051092D70203C081E08F
:102290008093DE0181E09091DE01913011F080E0C9
:1022A000089508950E942D11882359F0E091C202EB
:1022B000F091C302309729F00190F081E02D09954B
:1022C000089580E00895A4E0B0E0E9E6F1E10C941F
:1022D000CE2D0E942D11882371F00E94F206698391
:1022E0007A838B839C8369817A818B819C812496FC
:1022F000E2E00C94EA2D0E94F20669837A838B83D4
:102300009C838091390290913A02A0913B02B09156
:102310003C0229813A814B815C81280F391F4A1F79
:102320005B1F29833A834B835C83DDCF54985C9A8F
:10233000879A8F9885E08A95F1F7000089B1879890
:102340008F9A90EA9A95F1F78295817091E08927AA
:1023500008951F93CF93DF93182FEB010E94411034
:102360008FE99FE00197F1F700C000002197C1F7C6
:10237000812F0E941510DF91CF911F910895109227
:10238000CA020E943C0D2FEF84E39CE02150804064
:102390009040E1F700C0000088E19AE00FB6F894A1
:1023A000A895809360000FBE90936000FFCFCF93FD
:1023B000DF93C9E0D2E060E0CE010E945F2E21965B
:1023C000C11584E0D807B9F7DF91CF9108951F9325
:1023D000CF93DF93962F122F632F8530D8F4983048
:1023E000C8F44630B8F4C42FD0E0CC0FDD1F2CE089
:1023F000929FC00DD11D112490E6899FC00DD11D63
:102400001124CE0189960E945F2E612FCE018A96FB
:102410000E945F2EDF91CF911F910895AF92BF92DE
:10242000CF92DF92FF920F931F93CF93DF93B12C44
:10243000A12C00E0650110E013C0FE01259134914C
:102440004F2D612F802F0E94E7112296F39486E092
:10245000F812F3CF86E0C80ED11C1F5F183039F098
:10246000E601CC0FDD1FC652DD4FF12CE6CF0F5F2A
:1024700080E3A80EB11C0530E9F6DF91CF911F91E2
:102480000F91FF90DF90CF90BF90AF90089588E2BA
:1024900090E00E945F2E0895CF93C82F6FEF8111B7
:1024A00063E285E290E00E945F2E6FEFC11160E170
:1024B00086E290E00E945F2E6FEFC11167E087E235
:1024C00090E00E945F2ECF91089580E00E944C1210
:1024D00060E070E0CB010E9447120E940E120E9441
:1024E000D71181E00E944C1208950F931F93CF9350
:1024F000DF93853030F5683020F5463010F5C42F75
:10250000D0E0CC0FDD1F2CE0629FC00DD11D112447
:1025100030E6839FC00DD11D1124CE0189960E9403
:102520003B2E082F10E0102F0027CE018A960E9424
:102530003B2E9801282BC901DF91CF911F910F915C
:10254000089590E080E0F8CF462F672F783038F478
:10255000463028F4853018F40E947512089580E002
:1025600090E00895B0E0A0E0E8EBF2E10C94C92D12
:102570007C010091970280914702082BC4E0D0E0D3
:1025800010E0DC2EC8010C2E02C0959587950A94A8
:10259000E2F780FD09C02197A0F7D12C8D2DCDB792
:1025A000DEB7E7E00C94E52DB7018C2F0E94A41252
:1025B0000E94CB08019779F3F1CFCF93DF93D82F07
:1025C000C92F0E94B2126D2F7C2F0E94A4120E946C
:1025D000CB08DF91CF910895FC0184818823A1F07D
:1025E000808191810E94DD12282F92959F709630F4
:1025F00091F060F4925F9F70923030F481E0203F60
:1026000081F030F4283E30F080E004C09A5FF3CFD0
:10261000243FD1F7089581E0283E20F0213FA1F723
:10262000F9CF08950895A6E0B0E0E9E1F3E10C9454
:10263000CD2D49835A83392F89819A81332399F08B
:10264000222389F00E94B212182F682F89819A8163
:102650000E94140A69817A81812F0E94A412269611
:10266000E3E00C94E92D0E94E009182FF3CFA4E0D9
:10267000B0E0EDE3F3E10C94CE2D88E290E00E940F
:102680003B2E282F30E050E040E0CA01B9012496EB
:10269000E2E00C94EA2D85E290E00E943B2E83322A
:1026A00089F486E290E00E943B2E803159F487E263
:1026B00090E00E943B2E91E0873009F090E0892F56
:1026C0008170089580E0FCCFB0E0A0E0EAE6F3E19D
:1026D0000C94C82D6C017B0164E670E088E70E94D1
:1026E000F72AEC018601EC0CFD1CD7FD0CC0F801AB
:1026F000849164E670E00E94672BEC010F5F1F4F2E
:102700000E151F0591F70E94E92B81E0CD2B09F0F2
:1027100080E0CDB7DEB7E8E00C94E42D8091BE02F6
:102720009091C102911103C091E0892708958823F7
:1027300069F062E070E08FE292E00E946413811120
:1027400003C08091BE0208951092BE028091BE0225
:10275000EBCFA5E0B0E0EFEAF3E10C94CE2D809151
:10276000BE028D838091C1028823F1F00E94F2069F
:10277000DC01CB01805A9541AF4FBF4F8093BA0225
:102780009093BB02A093BC02B093BD028D818111D6
:1027900008C062E070E08DE292E00E946413811153
:1027A00008C08091BE028D838D812596E2E00C9455
:1027B000EA2D81E08093BE02F4CF9091490292FB12
:1027C000222720F9281779F080FB92F9909349028B
:1027D000609148027091490284E090E00E947D2E51
:1027E00082E00E941C0C089590E080E00E94492E37
:1027F000863E9E4F19F40E944B13089580E0089581
:10280000B0E0A0E0E6E0F4E10C94C82DFA01690123
:102810007801C82F880FDD0B3097B1F0DE0193E00F
:10282000AA0FBB1F9A95E1F7AF5FBE4F11968D912E
:102830009C91129781529E4F4C9150E0E417F507FE
:1028400008F4AF010E94322ECE010E94342D182FC1
:102850008823D1F0E114F104B9F083E0CC0FDD1F3F
:102860008A95E1F7FE01EF5FFE4F438150E0E416E9
:10287000F50608F4A701CF5FDE4F6C817D816152C0
:102880007E4FC6010E94322E812FCDB7DEB7E8E021
:102890000C94E42DA5E0B0E0E0E5F4E10C94C62D45
:1028A0008D83E62E5A01F22E6801809138028A301B
:1028B00028F080E02596EAE00C94E22D8D818730A7
:1028C000C4F319828A836B832C8363E070E0CE01AA
:1028D00002960E9429078983E0922101F092340137
:1028E00010E000E030E020E044E050E0BE016F5F27
:1028F0007F4F83E00E9400148823D9F24E2D50E0D0
:1029000030E020E0B50184E00E940014882389F2C1
:1029100030E020E041E050E0BE016B5F7F4F85E09A
:102920000E940014882329F20F2D10E0960150E038
:1029300040E070E060E086E00E940014BBCFA8E0B9
:10294000B0E0E5EAF4E10C94CC2D409134025091D2
:10295000350260913602709137022FB7F89480915A
:10296000C5029091C602A091C702B091C8022FBFC4
:10297000841B950BA60BB70B11E084369105A105BE
:10298000B10520F10E946311DC01CB010296A11D6B
:10299000B11D89839A83AB83BC8310E000E030E0F3
:1029A00020E044E050E0BE016F5F7F4F82E00E9474
:1029B0000014182F882351F00E94F206609334020D
:1029C000709335028093360290933702812F2896B8
:1029D000E4E00C94E82DA5E0B0E0E1EFF4E10C9424
:1029E000CA2D7B0101E010E09E012B5F3F4F50E0BC
:1029F00040E070E060E080E00E940014182F88231F
:102A000009F456C040913002509131026091320277
:102A1000709133022FB7F8948091C5029091C6024D
:102A2000A091C702B091C8022FBF841B950BA60BC3
:102A3000B70B84369105A105B10548F464E070E058
:102A400080EE91E00E9429079D81891789F104E0B9
:102A500010E09E012F5F3F4F50E040E070E060E0EB
:102A600081E00E940014182F64E070E080EE91E095
:102A70000E94290791E02D81281390E0192331F15C
:102A80000E94F2066093300270933102809332020A
:102A90009093330289819A81AB81BC8180932C020F
:102AA00090932D02A0932E02B0932F0211E00EC03E
:102AB0008091E0019091E101A091E201B091E301E8
:102AC00089839A83AB83BC831111E4CF80912C025C
:102AD00090912D02A0912E02B0912F02F7018083D8
:102AE0009183A283B383812F2596E6E00C94E62D93
:102AF00028E030E043E060E086E30E941B2A08956E
:102B0000ACE0B0E0E6E8F5E10C94CA2D4F835887BD
:102B100069877A878B879C8780917502882399F0D3
:102B20000E94781580E50E94972A0AEB0A95F1F732
:102B300000C00E94AF2A887899278038910509F44F
:102B400089C00E94C72A0E942D11882309F46DC0F4
:102B50000E94F206462F572FBC018091A901909147
:102B6000AA01A091AB01B091AC018A019B01081BA5
:102B7000190B2A0B3B0BD901C8010897A105B10518
:102B800008F453C04093A9015093AA016093AB018C
:102B90007093AC018091830290918402A091850290
:102BA000B0918602481B590B6A0B7B0B42335105CF
:102BB0006105710580F410927902109278021092EA
:102BC0007B0210927A0210927D0210927C02109287
:102BD0007F0210927E02109182020E949611482F6D
:102BE000BE01695F7F4F88E792E0112309F45FC05F
:102BF0000E94710A00918202109175020E94961142
:102C000041E04827BE01695F7F4F8CE792E00117E2
:102C100009F450C00E94710A86E0FE013796A1E9CE
:102C2000B2E001900D928A95E1F786E0FE013796B9
:102C3000DE01119601900D928A95E1F729813A8182
:102C40004B815C816D817E8180E090E02C96E6E096
:102C50000C94E62D0E94AF2A0E94AF2A7C010E94AC
:102C6000AF2A60E0E62AF82A0E94AF2A8C010E946F
:102C7000AF2A20E0022B182B0E94C72AF894B70134
:102C800080917802909179020E94260B90937902AC
:102C900080937802B80180917A0290917B020E9421
:102CA000260B90937B0280937A0278944CCF0E94FB
:102CB000CA0AA0CF0E94CA0AAFCFCF93DF93D82F02
:102CC000C62F0E9478158D2F80680E94972A8C2F1E
:102CD0000E94972A0E94C72A8FEC92E00197F1F791
:102CE00000C00000DF91CF910895682F893708F068
:102CF00068E76093800291E0909381029091750261
:102D0000992371F06150811101C065E0683708F0C6
:102D100067E78FE00E945D1660E080E50E945D1627
:102D20000895FB0180810E9475160895282F8091D7
:102D30008002811101C086E0022E000C330B820F4D
:102D4000932F911D1816190614F081E090E00E944F
:102D500075160895CF93C82F0E9478158C2F0E9466
:102D6000972A8FE792E00197F1F700C000000E94D8
:102D7000AF2AC82F0E94C72A9AE69A95F1F700C099
:102D80008C2FCF910895CF93DF930E94132A269A18
:102D90000E9478156AE58AE30E945D162FEF80E7AE
:102DA00092E0215080409040E1F700C0000082E0B6
:102DB0000E94AA1683E00E94AA1684E00E94AA1626
:102DC00085E00E94AA1686E00E94AA1660E080E1D3
:102DD0000E945D1680E00E94AA16D82F81E00E9412
:102DE000AA16C82F0E94C72AD23419F481E0C13034
:102DF00009F080E0817080937502882341F065E0DE
:102E00008FE00E945D1660E080E50E945D16DF9114
:102E1000CF9108951F920F920FB60F9211242F9306
:102E20003F934F935F936F937F938F939F93AF9352
:102E3000BF93CF93DF93EF93FF93D091E900DF70BF
:102E40008091EC00C82FC17080FDC0E81092E900AD
:102E50008091F000877F8093F00078940E94480D65
:102E60001092E9008091F00088608093F000CD2BF3
:102E7000CF70C093E900FF91EF91DF91CF91BF91A7
:102E8000AF919F918F917F916F915F914F913F9102
:102E90002F910F900FBE0F901F9018951F920F92B9
:102EA0000FB60F9211242F933F934F935F936F931D
:102EB0007F938F939F93AF93BF93EF93FF938091F3
:102EC000E10082FF09C08091E20082FF05C080918D
:102ED000E1008B7F8093E1008091DA0080FF24C0C5
:102EE0008091D80080FF20C08091DA008E7F80938F
:102EF000DA008091D90080FF9BC080E189BD82E12A
:102F000089BD09B400FEFDCF81E08093D702809196
:102F1000C902811109C00E9487050E94280680917C
:102F2000E20084608093E2008091E10080FF17C09E
:102F30008091E20080FF13C08091E2008E7F809339
:102F4000E2008091E20080618093E2008091D800ED
:102F500080628093D80019BC85E08093D70280916D
:102F6000E10084FF29C08091E20084FF25C080E158
:102F700089BD82E189BD09B400FEFDCF8091D800F2
:102F80008F7D8093D8008091E1008F7E8093E10057
:102F90008091E2008F7E8093E2008091E200816068
:102FA0008093E2008091D802882309F447C084E02E
:102FB0008093D7028091D7028091E10083FF27C0E0
:102FC0008091E20083FF23C08091E100877F80939E
:102FD000E10082E08093D7021092D8028091E10054
:102FE0008E7F8093E1008091E2008E7F8093E200EB
:102FF0008091E20080618093E20042E060E080E046
:103000000E94F6058091F00088608093F000FF91A7
:10301000EF91BF91AF919F918F917F916F915F9150
:103020004F913F912F910F900FBE0F901F901895C9
:1030300019BC1092D7021092C90276CF8091E3009A
:1030400087FD02C081E0B4CF83E0B2CF78941F92B5
:103050001FB61F9211248F939F93AF93BF938091BC
:10306000C5029091C602A091C702B091C802019614
:10307000A11DB11D8093C5029093C602A093C70203
:10308000B093C802BF91AF919F918F911F901FBEC7
:103090001F9018959C014FB7F8948091C5029091AC
:1030A000C602A091C702B091C8024FBF821B930B0A
:1030B00008952FB7F8948091C5029091C602A0910F
:1030C000C702B091C8022FBF0895A5E0B0E0EBE6BB
:1030D000F8E10C94C22D8091C102882309F4E4C068
:1030E0008091BF029091C0020E944A18C29708F4D2
:1030F000B2C00E9459189093C0028093BF028EE123
:1031000093E090932505809324050E942D11882338
:1031100009F4D6C060908D02698281E792E00E9436
:10312000BF0C809190020E94FA0A0E943F0C8DE62B
:1031300092E00E94BF0C80918F020E94FA0A0E94C6
:103140003F0C662009F4B4C08AE692E00E94BF0CEE
:10315000898182958F700E94FA0A0E943F0C8981B2
:103160000E94FA0A0E943F0C89818450853308F03E
:103170009FC086E692E00E94BF0C29812450330B49
:10318000F901EF5CFD4F84910E943F0C8DE892E0C5
:103190000E94BF0C809193020E94010B0E94831039
:1031A000809194020E94010B0E94831080919602EC
:1031B0000E94010B0E948310809195020E94010BD6
:1031C0000E94831084E892E00E94BF0C80918002EC
:1031D000811101C086E00E94010B01960E948310BC
:1031E0008EE792E00E94BF0C80918202811164C040
:1031F00080E30E943F0C8AE792E00E94BF0C80911E
:103200008702811101C087E0805D0E943F0C83E945
:1032100092E00E94BF0C41E050E05A8349838091C4
:103220009702882309F44AC090E0098002C095956E
:1032300087950A94E2F780FF41C089810E94FA0ACB
:103240000E943F0C69817A816F5F7F4F7A83698327
:103250006031710521F780911C0390911D03892B2A
:10326000A1F58091BE028823F9F00E94F2066983DD
:103270007A838B839C838091BA029091BB02A09148
:10328000BC02B091BD0229813A814B815C81281B2F
:10329000390B4A0B5B0BDA01C9018F3F9F4FAF4FD0
:1032A000BF4710F40E948E132596EEE00C94DE2D9D
:1032B00081E00E94CD0C6ACF81E39BCF8FE5C0CF28
:1032C0008AE992E00E94BF0CC6CF8091C102882398
:1032D00041F28091B9028111C4CF0E94A9132091BB
:1032E0001C0330911D032115310509F4BACF80E08C
:1032F00041E050E0082F10E0DA01082E02C0AA0FCA
:10330000BB1F0A94E2F7BA83A983BD01622373232A
:10331000672B11F48F5FEECF9091B80290FF97C0AA
:10332000880F880F880F8093670110926A01895F68
:103330008093680183E080936B0124E630E047E0EE
:1033400050E065E671E088E70E94972B892B09F031
:1033500088CFA80125E0440F551F2A95E1F78091F9
:10336000B80280FF86C0E8E9F2E080E2DF011D924A
:103370008A95E9F706E811E082E8E82E81E0F82E68
:1033800097E0992E88248394D801ED918D01D7017F
:103390006D917D01640F752F711D625E7C4FF0E0B1
:1033A000E856FD4F30E020E0792C721AA82C022E4E
:1033B00001C0AA0C0A94EAF76B0190E0D6018D9146
:1033C0006D018A21A72DA91BA770BA2E0A2E000C09
:1033D000BB0B682E01C0660CBA94EAF7B62CB19507
:1033E000A195B109A770BB2701C08695AA95EAF7F8
:1033F000A62DA82B80818A2B80839F5F9830F1F6C1
:103400002F5F3F4F31962830310571F621E00A38A1
:10341000120709F0B9CF04E610E020E230E048E9F5
:1034200052E060E488E70E94BE2B892B09F019CF97
:1034300049815A814095509580911C0390911D03BC
:103440004823592350931D0340931C030ACF8295B0
:10345000880F807680936701980136952795369579
:10346000279520936A01815E8093680120936B0108
:1034700064CF425E5C4F04E610E020E230E0D1CF42
:10348000AEE1B0E0E6E4FAE10C94CD2D40916E029D
:1034900050916F026091700270917102809172027E
:1034A000909173020E94801520936E0230936F02F8
:1034B0004093700250937102609372027093730292
:1034C00086E0EEE6F2E0DE01179601900D928A9515
:1034D000E1F786E0FE013796DE011D9601900D9220
:1034E0008A95E1F786E0FE013D96DE011196019096
:1034F0000D928A95E1F786E0FE013196AEE6B2E0E4
:1035000001900D928A95E1F786E0EEE6F2E0DE01A9
:10351000599601900D928A95E1F786E0FE01799621
:10352000DE01179601900D928A95E1F786E0FE0183
:103530003796DE01119601900D928A95E1F786E0AB
:10354000FE013196DE01539601900D928A95E1F7C6
:1035500086E0FE017396DE01179601900D928A9522
:10356000E1F786E0FE013796AEE6B2E001900D92FB
:103570008A95E1F786E0EEE6F2E0DE01179601902B
:103580000D928A95E1F780915901882309F445C08D
:1035900080915E0190915F010E944A1820915D0127
:1035A00028171906D0F580916001909161010E9461
:1035B0004A18893C910588F18A859985892B9B85D4
:1035C000892B9C85892B9885892B91E009F490E0C3
:1035D000909362010E94680710919702882351F12D
:1035E0000E94591890935F0180935E0110926101CF
:1035F0001092600180915A01111105C0882369F071
:103600000E94330C0AC0212F30E0082E02C03595ED
:1036100027950A94E2F720FFF3CF0E94480B81110F
:103620002FC080916D0210926D0281706E96E3E062
:103630000C94E92D80915A01111118C08111EDCF20
:1036400080915E0190915F010E944A1820915B0178
:1036500030915C012817390700F780915A010E94C8
:103660000F0C10925F0110925E01D7CF212F30E036
:1036700002C0359527958A95E2F720FFCECFE0CF9F
:1036800081E090E0D0CFA0E1B0E0E9E4FBE10C9470
:10369000C42D1A821982FE01339686E0DF011D9245
:1036A0008A95E9F780E7E82E81E0F82E10E000E047
:1036B000CC24C394D12C2AE7A22E21E0B22EF7010C
:1036C00081917F018F3F09F445C0F894E82FE2957E
:1036D000EF70F0E021A18F70A60102C0440F551FCA
:1036E0008A95E2F7CA01922F982B91A392A1809517
:1036F000892382A3789400C0E4E7F1E031E0912CC3
:1037000021912F3F09F470C0A22FA295AF70B0E0B5
:1037100090968C9190E02F7002C0959587952A9590
:10372000E2F780FD61C0832F982A330FAE16BF06E3
:1037300039F7F701319780818F3F11F00E94C1075F
:1037400050EA5A95F1F7E1E0F0E0EC0FFD1FE00FD1
:10375000F11F90820F5F1F4F0430110509F0AFCFAA
:1037600048E050E0BE016F5F7F4F8DE392E00E9422
:10377000252E9C01892B49F088E0FE013196ADE3AE
:10378000B2E001900D928A95E1F700914602232B59
:1037900069F181E08093D6010E9459189093D50178
:1037A0008093D4018091D4019091D5010E944A1850
:1037B000059700F110E00C5A1D4F44E050E06DE316
:1037C00072E0C8010E94252EE12C892B51F084E083
:1037D000EDE3F2E0D80101900D928A95E1F7EE2435
:1037E000E3941092D60107C080E09ECF8091D6016D
:1037F0008111D8CFE12C0E942D11F82EE0914602C4
:10380000882309F470C01A8619861C861B860E2F21
:1038100010E00C5A1D4F809138028A3050F54BEE63
:1038200054E1BE01675F7F4FC8010E94F4108823F6
:1038300009F448C04FE954E1BE01675F7F4FC801FA
:103840000E94F4108823F1F1109238028091450211
:1038500090E044E050E0BE01675F7F4F8C5A9D4F7F
:103860000E94252E21E02093DD01892BC1F4F12C4B
:1038700023C08091D7019091D8010E944A18843FBB
:10388000914068F68091DD01882389F3FE01399625
:1038900084E0DF011D928A95E9F71092DD01E09145
:1038A0004502F0E0EC5AFD4F89859A85AB85BC85D1
:1038B00080839183A283B3838F2D8E296096ECE061
:1038C0000C94E02D809138028F3F31F08F5F809310
:1038D00038028A3008F4BACF0E9459189093D80160
:1038E0008093D701CFCFF0E0EC5AFD4F80819181DA
:1038F000A281B3818093E0019093E101A093E20162
:10390000B093E30164E070E080EE91E00E9429074B
:103910008093DF018090E4019090E501A090E601A2
:10392000B090E7018091D9019091DA01A091DB017B
:10393000B091DC0188169906AA06BB0609F497CF58
:103940008092D9019092DA01A092DB01B092DC0161
:103950000E942D11F82E81118ACF0E94F206861A3C
:10396000970AA80AB90A8092390290923A02A09264
:103970003B02B0923C02A0CFA8E0B0E0E2ECFCE158
:103980000C94C02D8C01DC0114968C911497882323
:1039900009F4BDC021E04C9111965C9111971296EB
:1039A0006C91129713967C91139715969C910E9497
:1039B00013137C01F801B580BB2009F468C1975747
:1039C0008038910508F063C1FFE0FE1508F48FC050
:1039D0008FEF93E00E943B2E811189C0E9E0AE2E6B
:1039E000E2E0BE2EE1104FC01A821982FE0133962A
:1039F00086E0DF011D928A95E9F77AE0472E65019E
:103A0000BFEFCB1ADB0AC5010E943B2E89831A82C5
:103A1000882309F46CC0813009F07DC07501E2E0B3
:103A2000EE0EF11CC6010E943B2E8A83882309F406
:103A30005EC09FEF980F9330A0F5F3E0AF0EB11C7E
:103A4000C7010E943B2E8B83882309F450C01C823F
:103A5000DE0111967D01F7012081222381F22130C0
:103A600009F0B8C091818281913009F056C0F2E02E
:103A7000EF0EF11C65E070E0893311F460E570E051
:103A80000E94A91151C0A11424E0B20681F1C50120
:103A90000E943B2E811101C0EA943FEFA31AB30AA2
:103AA000A1CF8430D9F462E0C62ED12CC7012FEF0C
:103AB000E21AF20A0E943B2EE1E0F0E0EC0FFD1F5B
:103AC000EC0DFD1D8083882391F08C3749F4E2E0F2
:103AD000F0E0EC0FFD1FEC0DFD1D10825701B8CF7B
:103AE0003FEFC31AD30A87E0C816D104F9F68091D4
:103AF0007402877061F0D80115968C91882339F093
:103B00008091490282FF03C082E00E941C0C28962B
:103B1000E0E10C94DC2D56019BCF923039F522E088
:103B2000E20EF11C0E944110FFEFEF1AFF0A8FE92D
:103B30009FE00197F1F700C00000AFE9BFE01197E7
:103B4000F1F700C00000EFE9FFE03197F1F700C0A6
:103B500000008FE99FE00197F1F700C00000AFE996
:103B6000BFE01197F1F700C0000075CF933031F43A
:103B700032E0E30EF11C0E941510D6CF943021F0F4
:103B80008FEFE81AF80AD0CF92E0E90EF11C30E08E
:103B900020E0B7016F5F7F4FD70111964C918053A2
:103BA000990B8A30910558F02150310908F4BCCFA7
:103BB000EFE9FFE03197F1F700C00000F5CF429E3A
:103BC000F001439EF00D11249C012E0F3F1F842F06
:103BD0007B01DFCFE22FF0E0E557FE4F5490822FBC
:103BE00086958695869590E0FC01E558FE4F649099
:103BF0002770712C022E02C0759467940A94E2F724
:103C000031E063227724FC01E559FE4F8490912C2A
:103C1000022E02C0959487940A94E2F7A1E08A22CA
:103C20009924FC01E55AFE4FC490D12C02C0D594D2
:103C3000C7942A95E2F7B1E0CB22DD246114710428
:103C400019F081EE0E9441108114910419F086EE62
:103C50000E944110E9E365E070E05E1202C060E599
:103C600070E0852D0E94A9118114910419F086EE4F
:103C70000E9415106114710419F081EE0E94151054
:103C8000CD2809F451CF65E070E08CE2F9CE809147
:103C90005901F701FA956F01882349F1F0E2EF1617
:103CA000F2E5FF0608F092C0E11422E5F20608F002
:103CB000D4C0E11430E5F30608F07DC0E11480E4DF
:103CC000F80608F0DEC0E11490E2F90608F0E0C062
:103CD000A8EEEA16F10408F047C0B0EEEB16F104C6
:103CE00008F447C08091640187FD10926401F0924E
:103CF0008E02E0928D02D8018D919C91909390025A
:103D000080938F02F701C114BFE1DB0608F4FF279F
:103D1000D80115968C91E93DF10508F0CCC0E13D44
:103D2000F10508F4CCC0682F8E2F0E94A10BF8017A
:103D30008581F6E1EF16FCE7FF0609F01DC1882337
:103D400009F405C18091CA028A7A91E009F490E0F1
:103D50009093AD0169E2811165E38CE991E00E94E5
:103D60000F070E94FF0CC3CEC114EFE1DE0608F47A
:103D7000B9CFF8018481882309F4B4CFC7018D5CE1
:103D800091094397E0F10E9468078111ABCFBB20F6
:103D900059F080915A0120919702211180C0882307
:103DA00009F486C00E94390B0E9459189093610152
:103DB0008093600197CFC70155E0969587955A95F6
:103DC000E1F78F70992720915A0115C0F0E8EF169E
:103DD000F2E5FF06C0F420E6E21622E5F206E8F579
:103DE00030E4E31632E5F30608F07CCF20915A0167
:103DF000C7018F7199272817190609F073CF8B2DEA
:103E00000E943F076FCF80ECE81682E5F80608F4C1
:103E100069CFC701805C9245809708F0AACF2091B6
:103E20005A01C7018F7199272817190609F05ACF2F
:103E30008B2D0E943F07D80116968C911697807F94
:103E4000803509F04FCF15968C918823A1F0809191
:103E5000640181508093640145CF20915A01C701CC
:103E60008F7199272817190609F03CCFB1103ACF66
:103E70000E944D0737CF0E944D07809164018F5FEC
:103E8000E9CFF8018681807F19F48F2D992799CF8A
:103E9000D80116968C91807F09F424CF6ACF30E048
:103EA000082E02C0359527950A94E2F720FF7ACFB5
:103EB0000E940F0C77CFE730BEE7FB0779F188232C
:103EC00009F435CFFE57EA30F10508F030CFE1565E
:103ED000F14D0C940F2E80E00E947516109287020F
:103EE00006CE409180025091870250FB47F95695CB
:103EF000537060E070E08FE090E00E94712EF7CD8B
:103F000081E00E949616F3CD8FEFFBCF8AE0F9CFC8
:103F100086EFF7CF9091820281E089270E945D0AA7
:103F2000E6CD80918702811101C087E08F5F18166E
:103F30000CF081E0883008F087E080938702D7CDCD
:103F400080918702811101C087E08150F0CF80917C
:103F5000AD0181110FC089E2EEE9F1E024EA31E020
:103F60009191891303C0DF0111971C922E173F070F
:103F7000B9F7F7CE85E3F0CF27E7E2162CE7F20694
:103F800009F491C038E7E3163CE7F30609F49AC058
:103F90008823C9F08AE5E8168CE7F80609F4C4C05E
:103FA00008F096C0A1E0EA16ACE7FA0609F4BAC038
:103FB000B3E0EB16BCE7FB0609F4AEC0E114ECE796
:103FC000FE0609F49AC0F8018581C080D18088235B
:103FD00009F4AEC0C6010E94B212F82E682FC601C5
:103FE0000E94140AB6018F2D0E94A4120E94CB08D1
:103FF000C82EF92E982ED8011596BC9015971696B6
:10400000AC90A2943FE0A322809174028770F1F0FB
:10401000DB2CBB20E1F0892F807F803451F080E2DF
:104020008C0D883098F0A11004C0892F807E8032DA
:1040300069F08091490282FF09C082E00E941C0C55
:10404000809174028770DD24D3948111D12CEF2CE0
:10405000E2942FE0E222B8E0EB1609F45CC1BE1551
:1040600008F49AC0E3E0EE1508F467C08F2D807F56
:10407000FF2DFF70FF2E21E02E1508F0A1C0803229
:1040800019F0F29480EFF8228C2D992009F4CFC01A
:10409000A1E09A1609F415C1BB2009F421C1AA2098
:1040A00009F4E3C0A4C0882349F081E00E94330CE6
:1040B00043E062E081E00E94EF0B19CD81E00E94B5
:1040C0000F0CF6CF882311F082E0F0CF82E0F7CF1B
:1040D000FBE5EF16FCE7FF0649F12CE5E2162CE7BD
:1040E000F20609F070CF8091490282FB882780F99F
:1040F00091E089270E94DD1366CF1092CA020E94C8
:104100003C0D3FEF84E39CE0315080409040E1F76C
:1041100000C000000E94E1066FEF7FEF90E080E0BA
:104120000E947D2E0E94BF1181E0E4CF80E0E2CFAB
:10413000C6010E94E009F82E55CF35E0E31609F4D8
:10414000E5C02E2D2850330B2430310510F40E9489
:104150005211DD20B1F08091740280FD12C0D801AF
:1041600015961C928695869586950E94330CC801FB
:104170000E94BC1C809174028695869586950E944B
:104180000F0C20E0F80140815181628173818481AC
:1041900095810E941313BBCC89E0E81609F42AC16B
:1041A00086E08E0D8F70823060F68C2D92EF991222
:1041B00032C18F2D8F71B1102BC10E94330CC1CF32
:1041C000882319F0F29490EFF9228C2DBB20B9F0DE
:1041D000FF2069F090E29C0D983010F0C11009C0EA
:1041E0008091CA02F82AF092CA020E94FF0C8C2D1C
:1041F0002EC08091D101F82AF092D101F6CF0E9411
:104200001510FF2009F49DCF80E28C0D883010F04E
:10421000911004C08F2D0E94CE0906C0F0948091A9
:10422000D101F822F092D1010E94FF0C8ACF809137
:10423000490282FD16C0BB2069F0FF2039F0809151
:10424000CA02F82AF092CA020E94FF0C80E00E9483
:10425000411077CF80E00E941510FF2009F471CF44
:10426000D9CFBB20A1F0A11004C08F2D0E940B104C
:1042700068CFB1E0AB1265CF9091D0018F2D89232B
:10428000F81609F45ECFF92AF092D0015ACFA110A6
:1042900058CF8F2D0E9404109091D0018F2D89232B
:1042A00029F08F2D809589238093D0018091AE01D4
:1042B0009F2D982309F445CFF094F822F092AE0197
:1042C00040CFBB2029F0E5E0EA1508F43ACFCDCF86
:1042D000F4E0FA1508F435CF8F2D0E94041031CF89
:1042E000AA20D1F3893369F42FEF37EE83E0215010
:1042F00030408040E1F700C000008C2D0E94151076
:1043000020CFAFE1BEE41197F1F7F5CF6B2D8C2DE7
:104310000E94A10B16CF8F2D837099F5B11011CF8C
:104320004C2D429546954770440F440F8C2D8F704D
:10433000042E01C0880F0A94EAF72C2D2071C4FEC8
:1043400007C02FE030E001C0220F4A95EAF7209520
:104350003F2D369536953370323071F0333051F051
:1043600040914702313029F0822B84230E944A0A6F
:10437000E8CE842B822BFACF282B8091470282270C
:10438000F5CF8695BB2011F08F2D8170882309F41D
:10439000D8CE4C2D429546954770440F440F8C2D36
:1043A0008F70042E01C0880F0A94EAF72C2D20711B
:1043B000C4FE07C02FE030E001C0220F4A95EAF7A3
:1043C00020953F2D369536953370323071F033306D
:1043D00051F040919702313029F0822B84230E94C2
:1043E000EA0BAFCE842B822BFACF282B8091970239
:1043F0008227F5CFBF2DBF70FB2EBB2029F08B2F5E
:104400000E94330C8C2D32CF8C2D0E9404108F2DE6
:104410000E940F0C96CEE2EFE91570F0F0EF9F16B8
:10442000D1F021EF921691F0BB2009F458C0A110F1
:10443000DECE8F2D8F71C1CE33EF931621F194EF25
:104440009912F2CF8091490282FD29C08F2D8F7180
:10445000BB20F1F2B2CEBB2089F0A4E0AA1508F48B
:1044600070CEBF2DBF71FB2E81E090E001C0880FA0
:10447000BA95EAF7909197028927B1CFE5E0EA155E
:1044800008F45FCEEECF80E0BB2009F4A8CF9F2DCB
:104490009F7181E001C0880F9A95EAF7A0CFBB20F9
:1044A00099F0FF2DFF71FF2E8F2F0E94330C80910A
:1044B000490282FF07C028E0F29EC00111248360F8
:1044C000809374028F2D79CE81E00E941C0C31E024
:1044D0003A1508F036CE82E00E941C0C32CEAA209B
:1044E00079F0893341F48FEF97EEA3E0815090404B
:1044F000A040E1F700CFEFE1FEE43197F1F7FBCE0A
:104500008F2D8F7185CFCF93DF938091C701807FEF
:1045100009F04DC08091C601882309F448C0E0919C
:104520001A035091E102C091C201D091C101609182
:10453000C3017091C40147E05E17C9F18E2F90E06E
:10454000E49FF0011124EE51FD4F2481222391F1CB
:10455000489FF001499FF00D1124DF01AE51BD4F7E
:1045600011962C9111972C1325C02C912D1322C03C
:1045700015962C91159721111DC012962D913C91E5
:10458000261B370B283C3105A8F48091C7018F709A
:1045900080618093C701E851FD4F80818F708061F9
:1045A000808381EC91E00E94BC1C0E94D609DF91BF
:1045B000CF910895FC013196E770BECFADE0B0E039
:1045C000E4EEF2E20C94C42D8C0186E0F801DE01E9
:1045D000189601900D928A95E1F7F8018481E580A3
:1045E00091ECA92E91E0B92E9091C501911128C0AE
:1045F000882319F1EE20F1F0C8010E94EC12F82E88
:104600008823C1F087E0F801D50101900D928A95C9
:10461000E1F78091C501813031F48091C101909121
:10462000C2010E94DD120E9483228F2D2D96ECE0A4
:104630000C94E02DC8010E94BC1CFF24F394F5CF1C
:10464000D080C18082809380F090C6012091C30108
:104650003091C401A401421B530BFF2009F4BCC0DC
:10466000483C510508F092C08823F9F29091C201AC
:104670008091C701282F207F09F056C0C91214C0AD
:104680009091C101D91210C0E11048C08F708061B3
:104690008093C70181EC91E00E94BC1C8091C7010E
:1046A000F8018683F12CC1CFE11038C06C2D8D2D1F
:1046B0000E9469056C2D8D2D0E946905E82E8111DF
:1046C000F1CFD886C986888599850E94DD12292F69
:1046D00022952F70903458F49F70223088F09923DF
:1046E00099F0F8019681907F79F4FE2C9ECF2A5F95
:1046F0002F70223068F0C8010E94BC1CEF2CF5CF4F
:10470000992311F0882389F3805E883070F3F3CF0A
:10471000803F58F3815F833040F3EDCF8091C70134
:1047200081608093C701BECFC91207C09091C101BB
:10473000D91203C0EE2009F470C0C8010E94EC1227
:10474000882309F477CFEE2009F474CF8091C70154
:10475000803288F02091C1013091C2013A832983CF
:104760009C828B829091C5019D831E828F83CE0196
:1047700001960E94BC1C87E0F801A1ECB1E0019019
:104780000D928A95E1F70E94832257CF9091C7013D
:10479000292F207F51F481EC91E00E94BC1C87E01E
:1047A000F50111928A95E9F77DCF882309F43DCF71
:1047B0008091C2018C11C1CF8091C101D812BDCFAF
:1047C000E110BBCF9683C8010E94BC1C87E0F501B5
:1047D00011928A95E9F729CF483C5105B8F788230B
:1047E00009F42BCFFE2CEE2009F424CF8091C201D6
:1047F0008C1120C08091C101D8121CC08091C701CA
:1048000080FD0FC0982F907F61F08683903F31F03C
:10481000982F907F905F8F70892B8683C8010E94AC
:10482000BC1C87E0F801A1ECB1E001900D928A95E3
:10483000E1F7FBCEC8010E94EC1281119CCF809160
:10484000C70181608093C701C8010E94BC1CEDCEE6
:10485000ABE1B0E0EEE2F4E20C94CC2D4E8B5F8B3A
:10486000688F798F8A8F192F9B8F91111092D101A8
:104870001D8A86E0FE017696DE011F9601900D925C
:104880008A95E1F70A8D002341F021E04F85588990
:1048900069897A89C8010E9413130B8B1C8B87E0EE
:1048A000FE013F96DE01189601900D928A95E1F780
:1048B000CE0108960E94DE2281110CC087E0FE0125
:1048C0003896DE01119601900D928A95E1F74C859C
:1048D00041110BC017E080911A039091E1028913F6
:1048E00034C06B96E4E00C94E82D2091E10230E0B6
:1048F000C90101968770992750911A035817190614
:10490000A1F04D8397E0929FD001939FB00D1124A9
:10491000AE51BD4FFE01319601900D929A95E1F78F
:104920008093E1020E94D609D5CF1092CA020E945C
:104930003C0D1092E10210921A0387E0E1ECF1E0E5
:10494000DF011D928A95E9F7C5CF819FC00111242F
:104950008E519D4F0E94DE22882319F280911A0306
:1049600090E001968770992780931A03B4CFA6E050
:10497000B0E0EDEBF4E20C94CC2D0E9459188C01C0
:104980008091D2019091D3018017910781F0198213
:104990001A820E945918682F49815A81792F80E024
:1049A00090E00E9428241093D3010093D201269610
:1049B000E4E00C94E82D1F921FB61F9211248F93F0
:1049C0009F93AF93BF938091C402811113C08091D4
:1049D000C5029091C602A091C702B091C80241964B
:1049E000A11DB11D8093C5029093C602A093C7027A
:1049F000B093C802BF91AF919F918F911F901FBE3E
:104A00001F901895CDB7DEB7A4970FB6F894DEBF08
:104A10000FBECDBF85B7806885BF85B7806885BF6D
:104A200084B7877F84BF0FB6F894A8958091600003
:104A3000886180936000109260000FBE80E890E073
:104A40000FB6F89480936100909361000FBE80E9E7
:104A500097E090939B0180939A010E9487050E94A2
:104A600028068091E20084608093E200789480912F
:104A7000D7028823A1F01091E9001F709091EC00FB
:104A8000892F817090FD80E8182B1092E9008091A9
:104A9000E80083FD0E94480D1F701093E90082E03A
:104AA00084BD93E095BD9AEF97BD80936E00109200
:104AB000390210923A0210923B0210923C020E947C
:104AC0004B13811102C00E9465120E9496118093BF
:104AD00000010E942D1181110E94472C809100013C
:104AE0008091000194E0811190E09093460284E06F
:104AF000891B8093450284EF0E94C10785EF0E94C5
:104B0000C10786EF0E94C10787EF0E94C10704E733
:104B100011E0D8018D918D018F3F11F00E94C107E6
:104B2000B1E00A371B07A9F788E0E4E5F2E0DF010E
:104B3000682E1D926A94E9F7EDE3F2E0DF011D9221
:104B40008A95E9F70E94F413811167C066EE7EEF43
:104B500090E080E00E947D2E60E082E090E00E9484
:104B60005F2E60E083E090E00E945F2E109247028B
:104B700060E074E184E090E00E947D2E60E086E0D9
:104B800090E00E945F2E6FEF87E090E00E945F2E22
:104B900040E050E0BA0188E090E00E94712E60E0B1
:104BA00084E290E00E945F2E60E087E190E00E9446
:104BB0005F2E60E08CE090E00E945F2E60E08DE070
:104BC00090E00E945F2E19821A821B821C821D8235
:104BD0001E821F82188648E050E068E170E0CE0136
:104BE00001960E944F2E40E050E0BA0180E290E032
:104BF0000E94712E80E00E944C120E94651240E0DB
:104C000050E0BA018FE090E00E94712E40E050E049
:104C1000BA0183E190E00E94712E82E090E00E9450
:104C20003B2E80934A0284E090E00E94492E9093AC
:104C30004902809348020E94431BEFE3FCE931974D
:104C4000F1F700C000000E94431B8091540280FFD6
:104C500008C06FEF7FEF90E080E00E947D2E0E9401
:104C6000E10683E090E00E943B2E0E944A0A809178
:104C700097020E94B80B0E942D11882309F412C1DB
:104C800080E08093B80280E880931B030E94F12AA1
:104C90006BE070E082E292E00E946413882309F4E2
:104CA00043C08091B80265E070E081FDFDC08DE1F8
:104CB00092E00E9464138823B9F16DE070E08BE00C
:104CC00092E00E946413882379F10E94F20669A39E
:104CD0007AA38BA39CA3DC01CB01805A9541AF4FF3
:104CE000BF4F8093BA029093BB02A093BC02B093D3
:104CF000BD02EEE1F3E080E092E0DF018C011D9265
:104D000001501040E1F7F0932505E09324058FEF63
:104D10009FEF90931D0380931C0381E08093C10259
:104D20008093BE021092B9020E942D11811102C01F
:104D30000E944A2C0E94C3160E942D1181112EC080
:104D400087E797E09093400180933F012DE030E0AA
:104D500030933B0120933A018DE290E090933E0125
:104D600080933D014CE757E0509348014093470141
:104D70003093430120934201909346018093450173
:104D800041E956E15093500140934F0130934B015C
:104D900020934A0190934E0180934D010E94F41399
:104DA000882389F08FE090E00E94432E8B01862FAC
:104DB0008F770E947516001F0027001F1370110FB8
:104DC000102B1093870281E591E09093C3028093AA
:104DD000C20258E1C52ED12CBB24B39440E1A42ECD
:104DE0008091D70212E1853009F49EC00E94431BD6
:104DF0000BE412E024E5822E22E0922E3AE7E32E25
:104E000031E0F32E9701B401F8019191DB018D910E
:104E1000BD01D9014D919D018423B2E0E335FB072B
:104E200009F48EC0981789F30E942D11282E612C49
:104E3000F40171904F01D7018D917D017822F80125
:104E400031908F01371429F13724512C4424439495
:104E5000832D8421B1F02220A1F059826A820E9420
:104E600059189C838B83BD8291E0872D842109F49E
:104E700090E09E8349815A816B817C818D810E9463
:104E800028245394440CF6E05F12E2CFF8013197E6
:104E90007082639498E0792E6710CACF0E946311E4
:104EA00011E053C082E0EDCE88E192E002CF809124
:104EB000D702843031F10E948E130E94401A109262
:104EC000C40220E40FB6F894A895C09260000FBE0B
:104ED0002093600083B7817F846083BF83B7816044
:104EE00083BF7894889583B78E7F83BF0FB6F8947D
:104EF000A8958091600088618093600010926000A6
:104F00000FBE8091D602882379F00E94431BE4E50E
:104F1000F2E0AAE7B1E081919D91892309F06BC28B
:104F200032E0EC35F307B9F78091D702853009F408
:104F3000BECF1092CA020E943C0D0E94521156CF61
:104F4000981372CF0E94B72410E00E942D110E9486
:104F5000401A882339F00E9463110E9465180E944C
:104F6000A91304C00E9465181111F9CF0E945211B3
:104F700090915302891721F0809353020E94F20608
:104F80008091D702843009F4E6C00E942D11882355
:104F900009F426CF0E94F206462F572FBC018091BC
:104FA0006202811173C080915E0290915F02A091B4
:104FB0006002B09161023A014B01681A790A8A0ACB
:104FC0009B0AD401C301843F9140A105B10508F4B7
:104FD0005DC040935E0250935F02609360027093E5
:104FE000610280915C0290915D02019690935D0256
:104FF00080935C0219828E010F5F1F4F21E050E009
:1050000040E060E087E00E944A14811106C0809170
:105010005C0290915D020A97CCF111E0109362025C
:105020001093760281E09981911101C080E0809314
:1050300077028091750210E0882329F00E94961172
:1050400011E0811112E080917702882309F4CFC129
:105050000E9496118111CDC182E0182B0E94371356
:10506000462F572FBC01DC01CA018C7F3C014D014A
:10507000612A69A27AA28BA29CA2461557056805EF
:10508000790521F0CD01B3010E944712809177028A
:10509000882309F4A3CE0E94F2064B015C018091A3
:1050A000630290916402A0916502B091660295013D
:1050B0008401081B190B2A0B3B0BD901C80104976B
:1050C000A105B10580F119821A821B821C828E0112
:1050D0000F5F1F4F24E050E040E060E088E00E9456
:1050E0004A148823C1F069817A8180917C02909171
:1050F0007D020E94260B90937D0280937C026B813F
:105100007C8180917E0290917F020E94260B909379
:105110007F0280937E028092630290926402A0924A
:105120006502B092660280918102882309F454CE10
:1051300080918002898310E000E020E0AE014F5FA3
:105140005F4F61E089E00E944A14882309F444CE4D
:105150001092810241CE83E08093E9008091E800C3
:1051600082FF13CF8091E80090E085FF05C00E9488
:10517000A605882391F091E08091E8008B778093D9
:10518000E800992309F401CFE981E150E33178F592
:10519000F0E0E755F14D0C940F2E80E2E82EF12C53
:1051A0008E010F5F1F4F8091E80085FD0AC080913E
:1051B000E8008B778093E8000E94A605882399F386
:1051C000DACF8091F100D8018D938D01B1E0EB1A17
:1051D000F10849F7D0CF1A828CE08B831AC08A81FC
:1051E000833019F138F4813061F08230D9F08FEFDB
:1051F00089830FC08430D9F71B821C821D821E82D6
:1052000008C00E94F2060E94152E6B837C838D835A
:105210009E8340E250E0BE016F5F7F4F82E00E94BC
:105220009B10B3CE0E943713EECF2B81822F90E0DC
:10523000FE013496245E8830910558F7AC014C5A33
:105240005D4FBC0166587E4FDA013C91DB014C9109
:105250003423319301962813EECFDBCF8A8182303D
:1052600019F08530B1F2C3CF6B807C808D809E8039
:1052700069A27AA28BA29CA2C401B3010E94152E3E
:105280000E944712C6CF4C816B818A810E947512A1
:105290009827892798279E838D83BBCF2D813E81B8
:1052A0003227232732274C816B818A810E94E711A4
:1052B000B0CF0E940E12ADCFAA82ABCFBA8287EFD9
:1052C0008CCFEA80FB80FE24EF24FE248E010F5F4A
:1052D0001F4F8C80800E912E911CC701875F9D4FC0
:1052E0008016910609F495CF27EFE21621E0F20629
:1052F00058F40E943B2ED80114968C93FFEFEF1ABE
:10530000FF0A0F5F1F4FE9CFF8011482F7CF0A8120
:105310001B811027012710279E012F5F3F4F490156
:10532000EC80E00EF12EF11CC801875F9D4FE01666
:10533000F10609F46ECF073F31E0130728F4D401DA
:1053400014966C910E945F2EBFEF8B1A9B0A0F5F21
:105350001F4FEACF0E94D7115CCF85E08A8359CFD7
:10536000EA80FB80FE24EF24FE248E010F5F1F4F96
:105370008C80800E912E911CC70189968016910613
:1053800009F447CFE0EEEE16E1E0FE0658F40E9485
:105390003B2ED80114968C93FFEFEF1AFF0A0F5F94
:1053A0001F4FEACFF8011482F7CF0A811B81102723
:1053B000012710279E012F5F3F4F4901EC80E00E2F
:1053C000F12EF11CC8018996E016F10609F421CFEF
:1053D000003E31E0130728F4D40114966C910E942A
:1053E0005F2EBFEF8B1A9B0A0F5F1F4FEBCF80E042
:1053F00034CE81E032CEA9BC19BD09B400FEFDCF88
:105400008091D8008F7D8093D8008091E0008260E9
:105410008093E0008091E00081FDFCCF1092CA02F1
:105420000E943C0D81CD289A219A229A23982B988C
:1054300080E58CBD0895F90190916D019F3F09F0C1
:1054400074C08F3F09F471C061114AC010922705E2
:1054500090912705423009F447C0433009F448C011
:105460009460413009F441C021E030E02E173F073D
:1054700008F440C0909127052032310509F450C04E
:10548000E0F52830310509F446C02031310509F432
:1054900045C022303105D9F19CB520912705922BCA
:1054A0009CBD90912605992319F09DB591609DBDF5
:1054B00080936D01E82FE295EF70F0E031A1282F85
:1054C0002F7081E090E001C0880F2A95EAF7932FB2
:1054D000982B91A392A18095892382A381E00895BE
:1054E00090E290932705B4CF986090932705BCCFA6
:1054F0009C60FBCF220F331FB9CF2034310599F0C8
:1055000093602038310541F690932705C5CF91E08F
:1055100090932605C1CF21E0209326059160F4CF1A
:1055200021E0209326059260EFCF80E00895CF938D
:10553000DF938EBD0E945918EC010DB407FE05C023
:105540008EB590E0DF91CF9108950E9459188C1B81
:105550009D0B8436910588F38EEF9FEFF3CFCF93A9
:10556000DF931EBC0E945918EC010DB407FE05C064
:105570008EB590E0DF91CF9108950E9459188C1B51
:105580009D0B8436910588F38EEF9FEFF3CF8091CA
:105590006D018F3F29F1E82FE295EF70F0E041A116
:1055A0008F7021E030E0B90102C0660F771F8A9545
:1055B000E2F7CB01942F982B91A392A1892B82A380
:1055C0008FEF80936D018DB58E7F8DBD9CB58091E1
:1055D0002705809589238CBD1092270510922605FA
:1055E00008951092B9008CE08093B8000895B0E05F
:1055F000A0E0EDEFFAE20C94C52DB82EEB010E946D
:1056000059186C01EE24E394F12CC431D10560F0FB
:1056100025E0E22EF12CCF3FDC0731F0CE0164E132
:1056200070E00E94AA2D7B0184EAA82E94E8992EAE
:105630001092BC00A092BC000E945918182F092F8C
:105640008091BC0087FF0DC08091B900887F8830B1
:1056500001F18091B900887F8031D9F00FEF1FEF01
:1056600009C0812F902F0E944A18E816F90640F7CA
:105670000EEF1FEFCF3FDC07D9F2C6010E944A1898
:10568000C817D907A8F6C801CDB7DEB7EBE00C9470
:10569000E12DB092BB009092BC000E945918182FC7
:1056A000092F8091BC0087FF0AC02091B900287F94
:1056B000283111F0203491F610E000E0E4CF812F82
:1056C000902F0E944A18E816F90658F7D1CF0F9389
:1056D0001F93CF93DF93EB018093BB0084E880930B
:1056E000BC000E945918182F092F8091BC0087FF19
:1056F00011C02091B900287F81E090E0283211F498
:1057000090E080E0919581959109DF91CF911F9173
:105710000F910895CF3FDC0741F3812F902F0E9416
:105720004A18C817D90708F78EEF9FEFEECFB0E001
:10573000A0E0EDE9FBE20C94C82D6B018A01F22E8A
:10574000E32E622F732F0E94F72AAC01E6010C0DA5
:105750001D1DC017D10711F057FF09C084E98093C0
:10576000BC00CA01CDB7DEB7E8E00C94E42D6F2D84
:105770007E2D89910E94672BAC01EBCFB0E0A0E0B9
:10578000E4ECFBE20C94C82DC62F6A017901B80144
:105790000E94F72A9C0197FD0DC0B8018C2F0E9432
:1057A000672B9C01E601EC0CFD1CCE15DF0511F00A
:1057B00037FF09C084E98093BC00C901CDB7DEB7CB
:1057C000E8E00C94E42DB80189910E94672B9C01BC
:1057D000ECCF84E98093BC0008958EE14A9B02C01F
:1057E0008150E1F74A9BFECF08955A9880E28A954E
:1057F000F1F75A9A0895FC013BE03A95F1F798E0E9
:1058000020E080E031E040E14A95F1F7880F4A9BC3
:1058100002C08160232742E04A95F1F7000040E191
:105820004A95F1F7915079F790E19A95F1F799B18E
:1058300032E03A95F1F7000040E14A95F1F792FB2A
:10584000992790F992272081920F90830895A1E0E3
:10585000B0E0EDE2FCE20C94CA2D19828C017C01CF
:10586000E60EF11C0E151F0541F481E0998191119E
:1058700080E02196E6E00C94E62D0E94ED2BCE010F
:1058800001960E94FB2BF80181938F01EBCF529A76
:105890005A9A089552985A9AEA9AE9E6F0E0808175
:1058A0008F7C808308956150770B91E001C0990F40
:1058B0006A95EAF720E031E0911108C0222391F0C7
:1058C0005A9A80E28A95F1F75A980895492F482309
:1058D00039F05A9A232740E24A95F1F79695ECCF92
:1058E0005A98F9CF5A98EDCFFF920F931F93CF9309
:1058F000DF93EC018C01060F111DC017D10729F4AD
:10590000CDB7DEB7E5E00C94E72DF9900E94F52BBA
:1059100068E08F2D0E94532CF0CF1F920F920FB68C
:105920000F9211240F931F932F933F934F935F93E5
:105930006F937F938F939F93AF93BF93EF93FF9357
:10594000CF93DF930F92CDB7DEB719820E94ED2B74
:10595000CE0101960E94FB2B282F082F0695069555
:105960000695982F92959570802F8570980F892FA6
:10597000837096959695890F822787709981892BD8
:1059800009F05CC00B3008F059C080E18A95F1F74E
:105990005A9A529A82E08A95F1F700C05A9888E0A4
:1059A000089F80011124D801AF5FBE4F1696ED917C
:1059B000FC9117973097A9F060916E0170916F017B
:1059C00014962D913C911597260F371F11968D91A6
:1059D0009C911297680F791F13964C9113978C9195
:1059E0000995F801EF5FFE4F6381662351F0209126
:1059F0006E0130916F0184819581820F931F0E9407
:105A0000742C0E94F52B80E18A95F1F75A985298F0
:105A10005A9A80E18A95F1F7F801EF5FFE4F6081B5
:105A2000662351F020916E0130916F018181928146
:105A3000820F931F0E94272C0E94ED2B0F90DF9165
:105A4000CF91FF91EF91BF91AF919F918F917F91F6
:105A50006F915F914F913F912F911F910F910F90F7
:105A60000FBE0F901F9018950F931F93CF93DF9346
:105A7000EC010B970CF04CC0F894529A5A9885E0C0
:105A80008A95F1F700008C2F869585709C2F957074
:105A9000890F982F93708695869523E0CC0FDD1F94
:105AA0002A95E1F7890F8E01082B0E94F52B00C083
:105AB00068E0802F0E94532C80E18A95F1F752987C
:105AC0005A9A4A9B1EC087E090E04A991CC0FE018A
:105AD000EF5FFE4F63816623F9F020916E013091F4
